{
  "_format": "hh-sol-artifact-1",
  "contractName": "NFT",
  "sourceName": "contracts/NFT.sol",
  "abi": [
    {
      "inputs": [],
      "stateMutability": "nonpayable",
      "type": "constructor"
    },
    {
      "anonymous": false,
      "inputs": [
        {
          "indexed": true,
          "internalType": "address",
          "name": "owner",
          "type": "address"
        },
        {
          "indexed": true,
          "internalType": "address",
          "name": "approved",
          "type": "address"
        },
        {
          "indexed": true,
          "internalType": "uint256",
          "name": "tokenId",
          "type": "uint256"
        }
      ],
      "name": "Approval",
      "type": "event"
    },
    {
      "anonymous": false,
      "inputs": [
        {
          "indexed": true,
          "internalType": "address",
          "name": "owner",
          "type": "address"
        },
        {
          "indexed": true,
          "internalType": "address",
          "name": "operator",
          "type": "address"
        },
        {
          "indexed": false,
          "internalType": "bool",
          "name": "approved",
          "type": "bool"
        }
      ],
      "name": "ApprovalForAll",
      "type": "event"
    },
    {
      "anonymous": false,
      "inputs": [
        {
          "indexed": false,
          "internalType": "address",
          "name": "sender",
          "type": "address"
        },
        {
          "indexed": false,
          "internalType": "uint256",
          "name": "tokenId",
          "type": "uint256"
        },
        {
          "indexed": false,
          "internalType": "string",
          "name": "tokenURI",
          "type": "string"
        }
      ],
      "name": "CatNFTMinted",
      "type": "event"
    },
    {
      "anonymous": false,
      "inputs": [
        {
          "indexed": true,
          "internalType": "address",
          "name": "from",
          "type": "address"
        },
        {
          "indexed": true,
          "internalType": "address",
          "name": "to",
          "type": "address"
        },
        {
          "indexed": true,
          "internalType": "uint256",
          "name": "tokenId",
          "type": "uint256"
        }
      ],
      "name": "Transfer",
      "type": "event"
    },
    {
      "inputs": [
        {
          "internalType": "address",
          "name": "to",
          "type": "address"
        },
        {
          "internalType": "uint256",
          "name": "tokenId",
          "type": "uint256"
        }
      ],
      "name": "approve",
      "outputs": [],
      "stateMutability": "nonpayable",
      "type": "function"
    },
    {
      "inputs": [
        {
          "internalType": "address",
          "name": "owner",
          "type": "address"
        }
      ],
      "name": "balanceOf",
      "outputs": [
        {
          "internalType": "uint256",
          "name": "",
          "type": "uint256"
        }
      ],
      "stateMutability": "view",
      "type": "function"
    },
    {
      "inputs": [
        {
          "internalType": "uint256",
          "name": "tokenId",
          "type": "uint256"
        }
      ],
      "name": "getApproved",
      "outputs": [
        {
          "internalType": "address",
          "name": "",
          "type": "address"
        }
      ],
      "stateMutability": "view",
      "type": "function"
    },
    {
      "inputs": [
        {
          "internalType": "address",
          "name": "owner",
          "type": "address"
        },
        {
          "internalType": "address",
          "name": "operator",
          "type": "address"
        }
      ],
      "name": "isApprovedForAll",
      "outputs": [
        {
          "internalType": "bool",
          "name": "",
          "type": "bool"
        }
      ],
      "stateMutability": "view",
      "type": "function"
    },
    {
      "inputs": [],
      "name": "mintCatNFT",
      "outputs": [],
      "stateMutability": "nonpayable",
      "type": "function"
    },
    {
      "inputs": [],
      "name": "name",
      "outputs": [
        {
          "internalType": "string",
          "name": "",
          "type": "string"
        }
      ],
      "stateMutability": "view",
      "type": "function"
    },
    {
      "inputs": [
        {
          "internalType": "uint256",
          "name": "tokenId",
          "type": "uint256"
        }
      ],
      "name": "ownerOf",
      "outputs": [
        {
          "internalType": "address",
          "name": "",
          "type": "address"
        }
      ],
      "stateMutability": "view",
      "type": "function"
    },
    {
      "inputs": [
        {
          "internalType": "address",
          "name": "from",
          "type": "address"
        },
        {
          "internalType": "address",
          "name": "to",
          "type": "address"
        },
        {
          "internalType": "uint256",
          "name": "tokenId",
          "type": "uint256"
        }
      ],
      "name": "safeTransferFrom",
      "outputs": [],
      "stateMutability": "nonpayable",
      "type": "function"
    },
    {
      "inputs": [
        {
          "internalType": "address",
          "name": "from",
          "type": "address"
        },
        {
          "internalType": "address",
          "name": "to",
          "type": "address"
        },
        {
          "internalType": "uint256",
          "name": "tokenId",
          "type": "uint256"
        },
        {
          "internalType": "bytes",
          "name": "_data",
          "type": "bytes"
        }
      ],
      "name": "safeTransferFrom",
      "outputs": [],
      "stateMutability": "nonpayable",
      "type": "function"
    },
    {
      "inputs": [
        {
          "internalType": "address",
          "name": "operator",
          "type": "address"
        },
        {
          "internalType": "bool",
          "name": "approved",
          "type": "bool"
        }
      ],
      "name": "setApprovalForAll",
      "outputs": [],
      "stateMutability": "nonpayable",
      "type": "function"
    },
    {
      "inputs": [
        {
          "internalType": "bytes4",
          "name": "interfaceId",
          "type": "bytes4"
        }
      ],
      "name": "supportsInterface",
      "outputs": [
        {
          "internalType": "bool",
          "name": "",
          "type": "bool"
        }
      ],
      "stateMutability": "view",
      "type": "function"
    },
    {
      "inputs": [],
      "name": "symbol",
      "outputs": [
        {
          "internalType": "string",
          "name": "",
          "type": "string"
        }
      ],
      "stateMutability": "view",
      "type": "function"
    },
    {
      "inputs": [
        {
          "internalType": "uint256",
          "name": "tokenId",
          "type": "uint256"
        }
      ],
      "name": "tokenURI",
      "outputs": [
        {
          "internalType": "string",
          "name": "",
          "type": "string"
        }
      ],
      "stateMutability": "view",
      "type": "function"
    },
    {
      "inputs": [
        {
          "internalType": "address",
          "name": "from",
          "type": "address"
        },
        {
          "internalType": "address",
          "name": "to",
          "type": "address"
        },
        {
          "internalType": "uint256",
          "name": "tokenId",
          "type": "uint256"
        }
      ],
      "name": "transferFrom",
      "outputs": [],
      "stateMutability": "nonpayable",
      "type": "function"
    }
  ],
  "bytecode": "0x60806040526040518061040001604052806040518060400160405280600481526020017f487567650000000000000000000000000000000000000000000000000000000081525081526020016040518060400160405280600381526020017f426967000000000000000000000000000000000000000000000000000000000081525081526020016040518060400160405280600581526020017f536d616c6c00000000000000000000000000000000000000000000000000000081525081526020016040518060400160405280600481526020017f54696e790000000000000000000000000000000000000000000000000000000081525081526020016040518060400160405280600981526020017f4d696e697363756c65000000000000000000000000000000000000000000000081525081526020016040518060400160405280600981526020017f556c74726157696465000000000000000000000000000000000000000000000081525081526020016040518060400160405280600481526020017f426162790000000000000000000000000000000000000000000000000000000081525081526020016040518060400160405280600881526020017f456e6f726d6f757300000000000000000000000000000000000000000000000081525081526020016040518060400160405280600581526020017f4d6963726f00000000000000000000000000000000000000000000000000000081525081526020016040518060400160405280600781526020017f496d6d656e73650000000000000000000000000000000000000000000000000081525081526020016040518060400160405280600881526020017f53697a6561626c6500000000000000000000000000000000000000000000000081525081526020016040518060400160405280600b81526020017f5375627374616e7469616c00000000000000000000000000000000000000000081525081526020016040518060400160405280600881526020017f436f6c6f7373616c00000000000000000000000000000000000000000000000081525081526020016040518060400160405280600581526020017f477265617400000000000000000000000000000000000000000000000000000081525081526020016040518060400160405280600781526020017f4d6173736976650000000000000000000000000000000000000000000000000081525081526020016040518060400160405280600781526020017f576569676874790000000000000000000000000000000000000000000000000081525081526020016040518060400160405280600b81526020017f4675636b696e674875676500000000000000000000000000000000000000000081525081526020016040518060400160405280600a81526020017f4675636b696e674269670000000000000000000000000000000000000000000081525081526020016040518060400160405280600c81526020017f4675636b696e67536d616c6c000000000000000000000000000000000000000081525081526020016040518060400160405280600b81526020017f4675636b696e6754696e7900000000000000000000000000000000000000000081525081526020016040518060400160405280601081526020017f4675636b696e674d696e697363756c650000000000000000000000000000000081525081526020016040518060400160405280601081526020017f4675636b696e67556c747261576964650000000000000000000000000000000081525081526020016040518060400160405280600b81526020017f4675636b696e674261627900000000000000000000000000000000000000000081525081526020016040518060400160405280600f81526020017f4675636b696e67456e6f726d6f7573000000000000000000000000000000000081525081526020016040518060400160405280600c81526020017f4675636b696e674d6963726f000000000000000000000000000000000000000081525081526020016040518060400160405280600e81526020017f4675636b696e67496d6d656e736500000000000000000000000000000000000081525081526020016040518060400160405280600f81526020017f4675636b696e6753697a6561626c65000000000000000000000000000000000081525081526020016040518060400160405280601281526020017f4675636b696e675375627374616e7469616c000000000000000000000000000081525081526020016040518060400160405280600f81526020017f4675636b696e67436f6c6f7373616c000000000000000000000000000000000081525081526020016040518060400160405280600c81526020017f4675636b696e674772656174000000000000000000000000000000000000000081525081526020016040518060400160405280600e81526020017f4675636b696e674d61737369766500000000000000000000000000000000000081525081526020016040518060400160405280600e81526020017f4675636b696e675765696768747900000000000000000000000000000000000081525081525060089060206200078092919062001455565b506040518061040001604052806040518060400160405280600581526020017f426c61636b00000000000000000000000000000000000000000000000000000081525081526020016040518060400160405280600581526020017f576869746500000000000000000000000000000000000000000000000000000081525081526020016040518060400160405280600581526020017f426569676500000000000000000000000000000000000000000000000000000081525081526020016040518060400160405280600381526020017f526564000000000000000000000000000000000000000000000000000000000081525081526020016040518060400160405280600481526020017f426c75650000000000000000000000000000000000000000000000000000000081525081526020016040518060400160405280600481526020017f477265790000000000000000000000000000000000000000000000000000000081525081526020016040518060400160405280600681526020017f59656c6c6f77000000000000000000000000000000000000000000000000000081525081526020016040518060400160405280600581526020017f42726f776e00000000000000000000000000000000000000000000000000000081525081526020016040518060400160405280600581526020017f477265656e00000000000000000000000000000000000000000000000000000081525081526020016040518060400160405280600681526020017f507572706c65000000000000000000000000000000000000000000000000000081525081526020016040518060400160405280600a81526020017f49726964657363616e740000000000000000000000000000000000000000000081525081526020016040518060400160405280600981526020017f537061726b6c696e67000000000000000000000000000000000000000000000081525081526020016040518060400160405280600981526020017f4461726b426c61636b000000000000000000000000000000000000000000000081525081526020016040518060400160405280600981526020017f4461726b5768697465000000000000000000000000000000000000000000000081525081526020016040518060400160405280600981526020017f4461726b4265696765000000000000000000000000000000000000000000000081525081526020016040518060400160405280600781526020017f4461726b5265640000000000000000000000000000000000000000000000000081525081526020016040518060400160405280600881526020017f4461726b426c756500000000000000000000000000000000000000000000000081525081526020016040518060400160405280600881526020017f4461726b4772657900000000000000000000000000000000000000000000000081525081526020016040518060400160405280600a81526020017f4461726b59656c6c6f770000000000000000000000000000000000000000000081525081526020016040518060400160405280600981526020017f4461726b42726f776e000000000000000000000000000000000000000000000081525081526020016040518060400160405280600981526020017f4461726b477265656e000000000000000000000000000000000000000000000081525081526020016040518060400160405280600a81526020017f4461726b507572706c650000000000000000000000000000000000000000000081525081526020016040518060400160405280600a81526020017f4c69676874426c61636b0000000000000000000000000000000000000000000081525081526020016040518060400160405280600a81526020017f4c6967687457686974650000000000000000000000000000000000000000000081525081526020016040518060400160405280600a81526020017f4c6967687442656967650000000000000000000000000000000000000000000081525081526020016040518060400160405280600881526020017f4c6967687452656400000000000000000000000000000000000000000000000081525081526020016040518060400160405280600981526020017f4c69676874426c7565000000000000000000000000000000000000000000000081525081526020016040518060400160405280600981526020017f4c6967687447726579000000000000000000000000000000000000000000000081525081526020016040518060400160405280600b81526020017f4c6967687459656c6c6f7700000000000000000000000000000000000000000081525081526020016040518060400160405280600a81526020017f4c6967687442726f776e0000000000000000000000000000000000000000000081525081526020016040518060400160405280600a81526020017f4c69676874477265656e0000000000000000000000000000000000000000000081525081526020016040518060400160405280600b81526020017f4c69676874507572706c65000000000000000000000000000000000000000000815250815250600990602062000efd92919062001455565b50604051806101c001604052806040518060400160405280600681526020017f4a6167756172000000000000000000000000000000000000000000000000000081525081526020016040518060400160405280600581526020017f546967657200000000000000000000000000000000000000000000000000000081525081526020016040518060400160405280600481526020017f4c696f6e0000000000000000000000000000000000000000000000000000000081525081526020016040518060400160405280600681526020017f436f75676172000000000000000000000000000000000000000000000000000081525081526020016040518060400160405280600481526020017f4d696e780000000000000000000000000000000000000000000000000000000081525081526020016040518060400160405280600681526020017f426f62636174000000000000000000000000000000000000000000000000000081525081526020016040518060400160405280600881526020017f507573737963617400000000000000000000000000000000000000000000000081525081526020016040518060400160405280600781526020017f436865657461680000000000000000000000000000000000000000000000000081525081526020016040518060400160405280600a81526020017f4a756e676c65204361740000000000000000000000000000000000000000000081525081526020016040518060400160405280600781526020017f4c656f706172640000000000000000000000000000000000000000000000000081525081526020016040518060400160405280600381526020017f436174000000000000000000000000000000000000000000000000000000000081525081526020016040518060400160405280601181526020017f456e64616e67657265644368656574616800000000000000000000000000000081525081526020016040518060400160405280601481526020017f456e64616e67657265644a756e676c652043617400000000000000000000000081525081526020016040518060400160405280601181526020017f456e64616e67657265644c656f70617264000000000000000000000000000000815250815250600a90600e62001254929190620014bc565b5060405180610160016040528061012f815260200162004f5c61012f9139600b90805190602001906200128992919062001523565b503480156200129757600080fd5b506040518060400160405280600681526020017f6361744e465400000000000000000000000000000000000000000000000000008152506040518060400160405280600381526020017f434154000000000000000000000000000000000000000000000000000000000081525081600090805190602001906200131c92919062001523565b5080600190805190602001906200133592919062001523565b505050620013836040518060400160405280601881526020017f54686973206973206d79204e465420636f6e74726163742100000000000000008152506200138960201b62000e7b1760201c565b6200176e565b6200142981604051602401620013a0919062001682565b6040516020818303038152906040527f41304fac000000000000000000000000000000000000000000000000000000007bffffffffffffffffffffffffffffffffffffffffffffffffffffffff19166020820180517bffffffffffffffffffffffffffffffffffffffffffffffffffffffff83818316178352505050506200142c60201b60201c565b50565b60008151905060006a636f6e736f6c652e6c6f679050602083016000808483855afa5050505050565b828054828255906000526020600020908101928215620014a9579160200282015b82811115620014a85782518290805190602001906200149792919062001523565b509160200191906001019062001476565b5b509050620014b89190620015b4565b5090565b82805482825590600052602060002090810192821562001510579160200282015b828111156200150f578251829080519060200190620014fe92919062001523565b5091602001919060010190620014dd565b5b5090506200151f9190620015b4565b5090565b8280546200153190620016f8565b90600052602060002090601f016020900481019282620015555760008555620015a1565b82601f106200157057805160ff1916838001178555620015a1565b82800160010185558215620015a1579182015b82811115620015a057825182559160200191906001019062001583565b5b509050620015b09190620015dc565b5090565b5b80821115620015d85760008181620015ce9190620015fb565b50600101620015b5565b5090565b5b80821115620015f7576000816000905550600101620015dd565b5090565b5080546200160990620016f8565b6000825580601f106200161d57506200163e565b601f0160209004906000526020600020908101906200163d9190620015dc565b5b50565b60006200164e82620016a6565b6200165a8185620016b1565b93506200166c818560208601620016c2565b62001677816200175d565b840191505092915050565b600060208201905081810360008301526200169e818462001641565b905092915050565b600081519050919050565b600082825260208201905092915050565b60005b83811015620016e2578082015181840152602081019050620016c5565b83811115620016f2576000848401525b50505050565b600060028204905060018216806200171157607f821691505b602082108114156200172857620017276200172e565b5b50919050565b7f4e487b7100000000000000000000000000000000000000000000000000000000600052602260045260246000fd5b6000601f19601f8301169050919050565b6137de806200177e6000396000f3fe608060405234801561001057600080fd5b50600436106100ea5760003560e01c806370a082311161008c578063a22cb46511610066578063a22cb46514610249578063b88d4fde14610265578063c87b56dd14610281578063e985e9c5146102b1576100ea565b806370a08231146101f157806379b351d31461022157806395d89b411461022b576100ea565b8063095ea7b3116100c8578063095ea7b31461016d57806323b872dd1461018957806342842e0e146101a55780636352211e146101c1576100ea565b806301ffc9a7146100ef57806306fdde031461011f578063081812fc1461013d575b600080fd5b61010960048036038101906101049190612468565b6102e1565b6040516101169190613079565b60405180910390f35b6101276103c3565b6040516101349190613094565b60405180910390f35b610157600480360381019061015291906124ba565b610455565b6040516101649190612fd4565b60405180910390f35b6101876004803603810190610182919061242c565b6104da565b005b6101a3600480360381019061019e9190612326565b6105f2565b005b6101bf60048036038101906101ba9190612326565b610652565b005b6101db60048036038101906101d691906124ba565b610672565b6040516101e89190612fd4565b60405180910390f35b61020b600480360381019061020691906122c1565b610724565b60405161021891906132f4565b60405180910390f35b6102296107dc565b005b610233610a20565b6040516102409190613094565b60405180910390f35b610263600480360381019061025e91906123f0565b610ab2565b005b61027f600480360381019061027a9190612375565b610c33565b005b61029b600480360381019061029691906124ba565b610c95565b6040516102a89190613094565b60405180910390f35b6102cb60048036038101906102c691906122ea565b610de7565b6040516102d89190613079565b60405180910390f35b60007f80ac58cd000000000000000000000000000000000000000000000000000000007bffffffffffffffffffffffffffffffffffffffffffffffffffffffff1916827bffffffffffffffffffffffffffffffffffffffffffffffffffffffff191614806103ac57507f5b5e139f000000000000000000000000000000000000000000000000000000007bffffffffffffffffffffffffffffffffffffffffffffffffffffffff1916827bffffffffffffffffffffffffffffffffffffffffffffffffffffffff1916145b806103bc57506103bb82610f14565b5b9050919050565b6060600080546103d290613593565b80601f01602080910402602001604051908101604052809291908181526020018280546103fe90613593565b801561044b5780601f106104205761010080835404028352916020019161044b565b820191906000526020600020905b81548152906001019060200180831161042e57829003601f168201915b5050505050905090565b600061046082610f7e565b61049f576040517f08c379a000000000000000000000000000000000000000000000000000000000815260040161049690613254565b60405180910390fd5b6004600083815260200190815260200160002060009054906101000a900473ffffffffffffffffffffffffffffffffffffffff169050919050565b60006104e582610672565b90508073ffffffffffffffffffffffffffffffffffffffff168373ffffffffffffffffffffffffffffffffffffffff161415610556576040517f08c379a000000000000000000000000000000000000000000000000000000000815260040161054d906132b4565b60405180910390fd5b8073ffffffffffffffffffffffffffffffffffffffff16610575610fea565b73ffffffffffffffffffffffffffffffffffffffff1614806105a457506105a38161059e610fea565b610de7565b5b6105e3576040517f08c379a00000000000000000000000000000000000000000000000000000000081526004016105da90613194565b60405180910390fd5b6105ed8383610ff2565b505050565b6106036105fd610fea565b826110ab565b610642576040517f08c379a0000000000000000000000000000000000000000000000000000000008152600401610639906132d4565b60405180910390fd5b61064d838383611189565b505050565b61066d83838360405180602001604052806000815250610c33565b505050565b6000806002600084815260200190815260200160002060009054906101000a900473ffffffffffffffffffffffffffffffffffffffff169050600073ffffffffffffffffffffffffffffffffffffffff168173ffffffffffffffffffffffffffffffffffffffff16141561071b576040517f08c379a0000000000000000000000000000000000000000000000000000000008152600401610712906131d4565b60405180910390fd5b80915050919050565b60008073ffffffffffffffffffffffffffffffffffffffff168273ffffffffffffffffffffffffffffffffffffffff161415610795576040517f08c379a000000000000000000000000000000000000000000000000000000000815260040161078c906131b4565b60405180910390fd5b600360008373ffffffffffffffffffffffffffffffffffffffff1673ffffffffffffffffffffffffffffffffffffffff168152602001908152602001600020549050919050565b60006107e860076113e5565b905060006107f5826113f3565b9050600061080283611511565b9050600061080f8461162f565b9050600083838360405160200161082893929190612ea7565b60405160208183030381529060405290506000600b8260405160200161084f929190612ed8565b604051602081830303815290604052905061089e6040518060400160405280600a81526020017f46696e616c205356473a00000000000000000000000000000000000000000000815250610e7b565b6108dc6040518060400160405280601081526020017f2d2d2d2d2d2d2d2d2d2d2d2d2d2d2d2d00000000000000000000000000000000815250610e7b565b6108e581610e7b565b6109236040518060400160405280601081526020017f2d2d2d2d2d2d2d2d2d2d2d2d2d2d2d2d00000000000000000000000000000000815250610e7b565b6000610957836109328461174d565b604051602001610943929190612f4b565b60405160208183030381529060405261174d565b905060008160405160200161096c9190612fb2565b6040516020818303038152906040529050610987338961190b565b6109918882611929565b7f03427a89c3f91d92bdec2dc71aa4f7fdde613886cf8fe97e7de066aed10ba3b73389836040516109c49392919061303b565b60405180910390a1610a0c6040518060400160405280601581526020017f4d696e746564204e4654202320257320746f2025730000000000000000000000815250893361199d565b610a166007611a3c565b5050505050505050565b606060018054610a2f90613593565b80601f0160208091040260200160405190810160405280929190818152602001828054610a5b90613593565b8015610aa85780601f10610a7d57610100808354040283529160200191610aa8565b820191906000526020600020905b815481529060010190602001808311610a8b57829003601f168201915b5050505050905090565b610aba610fea565b73ffffffffffffffffffffffffffffffffffffffff168273ffffffffffffffffffffffffffffffffffffffff161415610b28576040517f08c379a0000000000000000000000000000000000000000000000000000000008152600401610b1f90613154565b60405180910390fd5b8060056000610b35610fea565b73ffffffffffffffffffffffffffffffffffffffff1673ffffffffffffffffffffffffffffffffffffffff16815260200190815260200160002060008473ffffffffffffffffffffffffffffffffffffffff1673ffffffffffffffffffffffffffffffffffffffff16815260200190815260200160002060006101000a81548160ff0219169083151502179055508173ffffffffffffffffffffffffffffffffffffffff16610be2610fea565b73ffffffffffffffffffffffffffffffffffffffff167f17307eab39ab6107e8899845ad3d59bd9653f200f220920489ca2b5937696c3183604051610c279190613079565b60405180910390a35050565b610c44610c3e610fea565b836110ab565b610c83576040517f08c379a0000000000000000000000000000000000000000000000000000000008152600401610c7a906132d4565b60405180910390fd5b610c8f84848484611a52565b50505050565b6060610ca082610f7e565b610cdf576040517f08c379a0000000000000000000000000000000000000000000000000000000008152600401610cd690613234565b60405180910390fd5b6000600660008481526020019081526020016000208054610cff90613593565b80601f0160208091040260200160405190810160405280929190818152602001828054610d2b90613593565b8015610d785780601f10610d4d57610100808354040283529160200191610d78565b820191906000526020600020905b815481529060010190602001808311610d5b57829003601f168201915b505050505090506000610d89611aae565b9050600081511415610d9f578192505050610de2565b600082511115610dd4578082604051602001610dbc929190612e83565b60405160208183030381529060405292505050610de2565b610ddd84611ac5565b925050505b919050565b6000600560008473ffffffffffffffffffffffffffffffffffffffff1673ffffffffffffffffffffffffffffffffffffffff16815260200190815260200160002060008373ffffffffffffffffffffffffffffffffffffffff1673ffffffffffffffffffffffffffffffffffffffff16815260200190815260200160002060009054906101000a900460ff16905092915050565b610f1181604051602401610e8f9190613094565b6040516020818303038152906040527f41304fac000000000000000000000000000000000000000000000000000000007bffffffffffffffffffffffffffffffffffffffffffffffffffffffff19166020820180517bffffffffffffffffffffffffffffffffffffffffffffffffffffffff8381831617835250505050611b6c565b50565b60007f01ffc9a7000000000000000000000000000000000000000000000000000000007bffffffffffffffffffffffffffffffffffffffffffffffffffffffff1916827bffffffffffffffffffffffffffffffffffffffffffffffffffffffff1916149050919050565b60008073ffffffffffffffffffffffffffffffffffffffff166002600084815260200190815260200160002060009054906101000a900473ffffffffffffffffffffffffffffffffffffffff1673ffffffffffffffffffffffffffffffffffffffff1614159050919050565b600033905090565b816004600083815260200190815260200160002060006101000a81548173ffffffffffffffffffffffffffffffffffffffff021916908373ffffffffffffffffffffffffffffffffffffffff160217905550808273ffffffffffffffffffffffffffffffffffffffff1661106583610672565b73ffffffffffffffffffffffffffffffffffffffff167f8c5be1e5ebec7d5bd14f71427d1e84f3dd0314c0f7b2291e5b200ac8c7c3b92560405160405180910390a45050565b60006110b682610f7e565b6110f5576040517f08c379a00000000000000000000000000000000000000000000000000000000081526004016110ec90613174565b60405180910390fd5b600061110083610672565b90508073ffffffffffffffffffffffffffffffffffffffff168473ffffffffffffffffffffffffffffffffffffffff16148061116f57508373ffffffffffffffffffffffffffffffffffffffff1661115784610455565b73ffffffffffffffffffffffffffffffffffffffff16145b80611180575061117f8185610de7565b5b91505092915050565b8273ffffffffffffffffffffffffffffffffffffffff166111a982610672565b73ffffffffffffffffffffffffffffffffffffffff16146111ff576040517f08c379a00000000000000000000000000000000000000000000000000000000081526004016111f690613274565b60405180910390fd5b600073ffffffffffffffffffffffffffffffffffffffff168273ffffffffffffffffffffffffffffffffffffffff16141561126f576040517f08c379a000000000000000000000000000000000000000000000000000000000815260040161126690613134565b60405180910390fd5b61127a838383611b95565b611285600082610ff2565b6001600360008573ffffffffffffffffffffffffffffffffffffffff1673ffffffffffffffffffffffffffffffffffffffff16815260200190815260200160002060008282546112d591906134a9565b925050819055506001600360008473ffffffffffffffffffffffffffffffffffffffff1673ffffffffffffffffffffffffffffffffffffffff168152602001908152602001600020600082825461132c91906133c8565b92505081905550816002600083815260200190815260200160002060006101000a81548173ffffffffffffffffffffffffffffffffffffffff021916908373ffffffffffffffffffffffffffffffffffffffff160217905550808273ffffffffffffffffffffffffffffffffffffffff168473ffffffffffffffffffffffffffffffffffffffff167fddf252ad1be2c89b69c2b068fc378daa952ba7f163c4a11628f55a4df523b3ef60405160405180910390a4505050565b600081600001549050919050565b6060600061142761140384611b9a565b6040516020016114139190612f90565b604051602081830303815290604052611d47565b90506008805490508161143a919061360e565b905060088181548110611476577f4e487b7100000000000000000000000000000000000000000000000000000000600052603260045260246000fd5b90600052602060002001805461148b90613593565b80601f01602080910402602001604051908101604052809291908181526020018280546114b790613593565b80156115045780601f106114d957610100808354040283529160200191611504565b820191906000526020600020905b8154815290600101906020018083116114e757829003601f168201915b5050505050915050919050565b6060600061154561152184611b9a565b6040516020016115319190612f29565b604051602081830303815290604052611d47565b905060098054905081611558919061360e565b905060098181548110611594577f4e487b7100000000000000000000000000000000000000000000000000000000600052603260045260246000fd5b9060005260206000200180546115a990613593565b80601f01602080910402602001604051908101604052809291908181526020018280546115d590613593565b80156116225780601f106115f757610100808354040283529160200191611622565b820191906000526020600020905b81548152906001019060200180831161160557829003601f168201915b5050505050915050919050565b6060600061166361163f84611b9a565b60405160200161164f9190612f07565b604051602081830303815290604052611d47565b9050600a8054905081611676919061360e565b9050600a81815481106116b2577f4e487b7100000000000000000000000000000000000000000000000000000000600052603260045260246000fd5b9060005260206000200180546116c790613593565b80601f01602080910402602001604051908101604052809291908181526020018280546116f390613593565b80156117405780601f1061171557610100808354040283529160200191611740565b820191906000526020600020905b81548152906001019060200180831161172357829003601f168201915b5050505050915050919050565b606060008251905060008114156117765760405180602001604052806000815250915050611906565b6000600360028361178791906133c8565b611791919061341e565b600461179d919061344f565b905060006020826117ae91906133c8565b67ffffffffffffffff8111156117ed577f4e487b7100000000000000000000000000000000000000000000000000000000600052604160045260246000fd5b6040519080825280601f01601f19166020018201604052801561181f5781602001600182028036833780820191505090505b5090506000604051806060016040528060408152602001613769604091399050600181016020830160005b868110156118c35760038101905062ffffff818a015116603f8160121c168401518060081b905060ff603f83600c1c1686015116810190508060081b905060ff603f8360061c1686015116810190508060081b905060ff603f831686015116810190508060e01b9050808452600484019350505061184a565b5060038606600181146118dd57600281146118ed576118f8565b613d3d60f01b60028303526118f8565b603d60f81b60018303525b508484525050819450505050505b919050565b611925828260405180602001604052806000815250611d7a565b5050565b61193282610f7e565b611971576040517f08c379a0000000000000000000000000000000000000000000000000000000008152600401611968906131f4565b60405180910390fd5b8060066000848152602001908152602001600020908051906020019061199892919061214d565b505050565b611a378383836040516024016119b5939291906130b6565b6040516020818303038152906040527fe3849f79000000000000000000000000000000000000000000000000000000007bffffffffffffffffffffffffffffffffffffffffffffffffffffffff19166020820180517bffffffffffffffffffffffffffffffffffffffffffffffffffffffff8381831617835250505050611b6c565b505050565b6001816000016000828254019250508190555050565b611a5d848484611189565b611a6984848484611dd5565b611aa8576040517f08c379a0000000000000000000000000000000000000000000000000000000008152600401611a9f906130f4565b60405180910390fd5b50505050565b606060405180602001604052806000815250905090565b6060611ad082610f7e565b611b0f576040517f08c379a0000000000000000000000000000000000000000000000000000000008152600401611b0690613294565b60405180910390fd5b6000611b19611aae565b90506000815111611b395760405180602001604052806000815250611b64565b80611b4384611b9a565b604051602001611b54929190612e83565b6040516020818303038152906040525b915050919050565b60008151905060006a636f6e736f6c652e6c6f679050602083016000808483855afa5050505050565b505050565b60606000821415611be2576040518060400160405280600181526020017f30000000000000000000000000000000000000000000000000000000000000008152509050611d42565b600082905060005b60008214611c14578080611bfd906135c5565b915050600a82611c0d919061341e565b9150611bea565b60008167ffffffffffffffff811115611c56577f4e487b7100000000000000000000000000000000000000000000000000000000600052604160045260246000fd5b6040519080825280601f01601f191660200182016040528015611c885781602001600182028036833780820191505090505b5090505b60008514611d3b57600182611ca191906134a9565b9150600a85611cb0919061360e565b6030611cbc91906133c8565b60f81b818381518110611cf8577f4e487b7100000000000000000000000000000000000000000000000000000000600052603260045260246000fd5b60200101907effffffffffffffffffffffffffffffffffffffffffffffffffffffffffffff1916908160001a905350600a85611d34919061341e565b9450611c8c565b8093505050505b919050565b600081604051602001611d5a9190612e6c565b6040516020818303038152906040528051906020012060001c9050919050565b611d848383611f6c565b611d916000848484611dd5565b611dd0576040517f08c379a0000000000000000000000000000000000000000000000000000000008152600401611dc7906130f4565b60405180910390fd5b505050565b6000611df68473ffffffffffffffffffffffffffffffffffffffff1661213a565b15611f5f578373ffffffffffffffffffffffffffffffffffffffff1663150b7a02611e1f610fea565b8786866040518563ffffffff1660e01b8152600401611e419493929190612fef565b602060405180830381600087803b158015611e5b57600080fd5b505af1925050508015611e8c57506040513d601f19601f82011682018060405250810190611e899190612491565b60015b611f0f573d8060008114611ebc576040519150601f19603f3d011682016040523d82523d6000602084013e611ec1565b606091505b50600081511415611f07576040517f08c379a0000000000000000000000000000000000000000000000000000000008152600401611efe906130f4565b60405180910390fd5b805181602001fd5b63150b7a0260e01b7bffffffffffffffffffffffffffffffffffffffffffffffffffffffff1916817bffffffffffffffffffffffffffffffffffffffffffffffffffffffff191614915050611f64565b600190505b949350505050565b600073ffffffffffffffffffffffffffffffffffffffff168273ffffffffffffffffffffffffffffffffffffffff161415611fdc576040517f08c379a0000000000000000000000000000000000000000000000000000000008152600401611fd390613214565b60405180910390fd5b611fe581610f7e565b15612025576040517f08c379a000000000000000000000000000000000000000000000000000000000815260040161201c90613114565b60405180910390fd5b61203160008383611b95565b6001600360008473ffffffffffffffffffffffffffffffffffffffff1673ffffffffffffffffffffffffffffffffffffffff168152602001908152602001600020600082825461208191906133c8565b92505081905550816002600083815260200190815260200160002060006101000a81548173ffffffffffffffffffffffffffffffffffffffff021916908373ffffffffffffffffffffffffffffffffffffffff160217905550808273ffffffffffffffffffffffffffffffffffffffff16600073ffffffffffffffffffffffffffffffffffffffff167fddf252ad1be2c89b69c2b068fc378daa952ba7f163c4a11628f55a4df523b3ef60405160405180910390a45050565b600080823b905060008111915050919050565b82805461215990613593565b90600052602060002090601f01602090048101928261217b57600085556121c2565b82601f1061219457805160ff19168380011785556121c2565b828001600101855582156121c2579182015b828111156121c15782518255916020019190600101906121a6565b5b5090506121cf91906121d3565b5090565b5b808211156121ec5760008160009055506001016121d4565b5090565b60006122036121fe84613340565b61330f565b90508281526020810184848401111561221b57600080fd5b612226848285613551565b509392505050565b60008135905061223d8161370c565b92915050565b60008135905061225281613723565b92915050565b6000813590506122678161373a565b92915050565b60008151905061227c8161373a565b92915050565b600082601f83011261229357600080fd5b81356122a38482602086016121f0565b91505092915050565b6000813590506122bb81613751565b92915050565b6000602082840312156122d357600080fd5b60006122e18482850161222e565b91505092915050565b600080604083850312156122fd57600080fd5b600061230b8582860161222e565b925050602061231c8582860161222e565b9150509250929050565b60008060006060848603121561233b57600080fd5b60006123498682870161222e565b935050602061235a8682870161222e565b925050604061236b868287016122ac565b9150509250925092565b6000806000806080858703121561238b57600080fd5b60006123998782880161222e565b94505060206123aa8782880161222e565b93505060406123bb878288016122ac565b925050606085013567ffffffffffffffff8111156123d857600080fd5b6123e487828801612282565b91505092959194509250565b6000806040838503121561240357600080fd5b60006124118582860161222e565b925050602061242285828601612243565b9150509250929050565b6000806040838503121561243f57600080fd5b600061244d8582860161222e565b925050602061245e858286016122ac565b9150509250929050565b60006020828403121561247a57600080fd5b600061248884828501612258565b91505092915050565b6000602082840312156124a357600080fd5b60006124b18482850161226d565b91505092915050565b6000602082840312156124cc57600080fd5b60006124da848285016122ac565b91505092915050565b6124ec816134dd565b82525050565b6124fb816134ef565b82525050565b600061250c82613385565b612516818561339b565b9350612526818560208601613560565b61252f816136fb565b840191505092915050565b600061254582613390565b61254f81856133ac565b935061255f818560208601613560565b612568816136fb565b840191505092915050565b600061257e82613390565b61258881856133bd565b9350612598818560208601613560565b80840191505092915050565b600081546125b181613593565b6125bb81866133bd565b945060018216600081146125d657600181146125e75761261a565b60ff1983168652818601935061261a565b6125f085613370565b60005b83811015612612578154818901526001820191506020810190506125f3565b838801955050505b50505092915050565b60006126306032836133ac565b91507f4552433732313a207472616e7366657220746f206e6f6e20455243373231526560008301527f63656976657220696d706c656d656e74657200000000000000000000000000006020830152604082019050919050565b6000612696601c836133ac565b91507f4552433732313a20746f6b656e20616c7265616479206d696e746564000000006000830152602082019050919050565b60006126d6600a836133bd565b91507f54484952445f574f5244000000000000000000000000000000000000000000006000830152600a82019050919050565b60006127166024836133ac565b91507f4552433732313a207472616e7366657220746f20746865207a65726f2061646460008301527f72657373000000000000000000000000000000000000000000000000000000006020830152604082019050919050565b600061277c6019836133ac565b91507f4552433732313a20617070726f766520746f2063616c6c6572000000000000006000830152602082019050919050565b60006127bc600b836133bd565b91507f5345434f4e445f574f52440000000000000000000000000000000000000000006000830152600b82019050919050565b60006127fc602c836133ac565b91507f4552433732313a206f70657261746f7220717565727920666f72206e6f6e657860008301527f697374656e7420746f6b656e00000000000000000000000000000000000000006020830152604082019050919050565b6000612862600d836133bd565b91507f3c2f746578743e3c2f7376673e000000000000000000000000000000000000006000830152600d82019050919050565b60006128a26038836133ac565b91507f4552433732313a20617070726f76652063616c6c6572206973206e6f74206f7760008301527f6e6572206e6f7220617070726f76656420666f7220616c6c00000000000000006020830152604082019050919050565b6000612908602a836133ac565b91507f4552433732313a2062616c616e636520717565727920666f7220746865207a6560008301527f726f2061646472657373000000000000000000000000000000000000000000006020830152604082019050919050565b600061296e6029836133ac565b91507f4552433732313a206f776e657220717565727920666f72206e6f6e657869737460008301527f656e7420746f6b656e00000000000000000000000000000000000000000000006020830152604082019050919050565b60006129d4602e836133ac565b91507f45524337323155524953746f726167653a2055524920736574206f66206e6f6e60008301527f6578697374656e7420746f6b656e0000000000000000000000000000000000006020830152604082019050919050565b6000612a3a6002836133bd565b91507f227d0000000000000000000000000000000000000000000000000000000000006000830152600282019050919050565b6000612a7a6020836133ac565b91507f4552433732313a206d696e7420746f20746865207a65726f20616464726573736000830152602082019050919050565b6000612aba6031836133ac565b91507f45524337323155524953746f726167653a2055524920717565727920666f722060008301527f6e6f6e6578697374656e7420746f6b656e0000000000000000000000000000006020830152604082019050919050565b6000612b20602c836133ac565b91507f4552433732313a20617070726f76656420717565727920666f72206e6f6e657860008301527f697374656e7420746f6b656e00000000000000000000000000000000000000006020830152604082019050919050565b6000612b866029836133ac565b91507f4552433732313a207472616e73666572206f6620746f6b656e2074686174206960008301527f73206e6f74206f776e00000000000000000000000000000000000000000000006020830152604082019050919050565b6000612bec602f836133ac565b91507f4552433732314d657461646174613a2055524920717565727920666f72206e6f60008301527f6e6578697374656e7420746f6b656e00000000000000000000000000000000006020830152604082019050919050565b6000612c52600a836133bd565b91507f7b226e616d65223a2022000000000000000000000000000000000000000000006000830152600a82019050919050565b6000612c926021836133ac565b91507f4552433732313a20617070726f76616c20746f2063757272656e74206f776e6560008301527f72000000000000000000000000000000000000000000000000000000000000006020830152604082019050919050565b6000612cf8600a836133bd565b91507f46495253545f574f5244000000000000000000000000000000000000000000006000830152600a82019050919050565b6000612d38601d836133bd565b91507f646174613a6170706c69636174696f6e2f6a736f6e3b6261736536342c0000006000830152601d82019050919050565b6000612d786031836133ac565b91507f4552433732313a207472616e736665722063616c6c6572206973206e6f74206f60008301527f776e6572206e6f7220617070726f7665640000000000000000000000000000006020830152604082019050919050565b6000612dde6060836133bd565b91507f222c20226465736372697074696f6e223a20224120686967686c79206163636c60008301527f61696d656420636f6c6c656374696f6e206f6620636174732e222c2022696d6160208301527f6765223a2022646174613a696d6167652f7376672b786d6c3b6261736536342c6040830152606082019050919050565b612e6681613547565b82525050565b6000612e788284612573565b915081905092915050565b6000612e8f8285612573565b9150612e9b8284612573565b91508190509392505050565b6000612eb38286612573565b9150612ebf8285612573565b9150612ecb8284612573565b9150819050949350505050565b6000612ee482856125a4565b9150612ef08284612573565b9150612efb82612855565b91508190509392505050565b6000612f12826126c9565b9150612f1e8284612573565b915081905092915050565b6000612f34826127af565b9150612f408284612573565b915081905092915050565b6000612f5682612c45565b9150612f628285612573565b9150612f6d82612dd1565b9150612f798284612573565b9150612f8482612a2d565b91508190509392505050565b6000612f9b82612ceb565b9150612fa78284612573565b915081905092915050565b6000612fbd82612d2b565b9150612fc98284612573565b915081905092915050565b6000602082019050612fe960008301846124e3565b92915050565b600060808201905061300460008301876124e3565b61301160208301866124e3565b61301e6040830185612e5d565b81810360608301526130308184612501565b905095945050505050565b600060608201905061305060008301866124e3565b61305d6020830185612e5d565b818103604083015261306f818461253a565b9050949350505050565b600060208201905061308e60008301846124f2565b92915050565b600060208201905081810360008301526130ae818461253a565b905092915050565b600060608201905081810360008301526130d0818661253a565b90506130df6020830185612e5d565b6130ec60408301846124e3565b949350505050565b6000602082019050818103600083015261310d81612623565b9050919050565b6000602082019050818103600083015261312d81612689565b9050919050565b6000602082019050818103600083015261314d81612709565b9050919050565b6000602082019050818103600083015261316d8161276f565b9050919050565b6000602082019050818103600083015261318d816127ef565b9050919050565b600060208201905081810360008301526131ad81612895565b9050919050565b600060208201905081810360008301526131cd816128fb565b9050919050565b600060208201905081810360008301526131ed81612961565b9050919050565b6000602082019050818103600083015261320d816129c7565b9050919050565b6000602082019050818103600083015261322d81612a6d565b9050919050565b6000602082019050818103600083015261324d81612aad565b9050919050565b6000602082019050818103600083015261326d81612b13565b9050919050565b6000602082019050818103600083015261328d81612b79565b9050919050565b600060208201905081810360008301526132ad81612bdf565b9050919050565b600060208201905081810360008301526132cd81612c85565b9050919050565b600060208201905081810360008301526132ed81612d6b565b9050919050565b60006020820190506133096000830184612e5d565b92915050565b6000604051905081810181811067ffffffffffffffff82111715613336576133356136cc565b5b8060405250919050565b600067ffffffffffffffff82111561335b5761335a6136cc565b5b601f19601f8301169050602081019050919050565b60008190508160005260206000209050919050565b600081519050919050565b600081519050919050565b600082825260208201905092915050565b600082825260208201905092915050565b600081905092915050565b60006133d382613547565b91506133de83613547565b9250827fffffffffffffffffffffffffffffffffffffffffffffffffffffffffffffffff038211156134135761341261363f565b5b828201905092915050565b600061342982613547565b915061343483613547565b9250826134445761344361366e565b5b828204905092915050565b600061345a82613547565b915061346583613547565b9250817fffffffffffffffffffffffffffffffffffffffffffffffffffffffffffffffff048311821515161561349e5761349d61363f565b5b828202905092915050565b60006134b482613547565b91506134bf83613547565b9250828210156134d2576134d161363f565b5b828203905092915050565b60006134e882613527565b9050919050565b60008115159050919050565b60007fffffffff0000000000000000000000000000000000000000000000000000000082169050919050565b600073ffffffffffffffffffffffffffffffffffffffff82169050919050565b6000819050919050565b82818337600083830152505050565b60005b8381101561357e578082015181840152602081019050613563565b8381111561358d576000848401525b50505050565b600060028204905060018216806135ab57607f821691505b602082108114156135bf576135be61369d565b5b50919050565b60006135d082613547565b91507fffffffffffffffffffffffffffffffffffffffffffffffffffffffffffffffff8214156136035761360261363f565b5b600182019050919050565b600061361982613547565b915061362483613547565b9250826136345761363361366e565b5b828206905092915050565b7f4e487b7100000000000000000000000000000000000000000000000000000000600052601160045260246000fd5b7f4e487b7100000000000000000000000000000000000000000000000000000000600052601260045260246000fd5b7f4e487b7100000000000000000000000000000000000000000000000000000000600052602260045260246000fd5b7f4e487b7100000000000000000000000000000000000000000000000000000000600052604160045260246000fd5b6000601f19601f8301169050919050565b613715816134dd565b811461372057600080fd5b50565b61372c816134ef565b811461373757600080fd5b50565b613743816134fb565b811461374e57600080fd5b50565b61375a81613547565b811461376557600080fd5b5056fe4142434445464748494a4b4c4d4e4f505152535455565758595a6162636465666768696a6b6c6d6e6f707172737475767778797a303132333435363738392b2fa2646970667358221220a0dc6c85e9ea8d4dc14b488db226171912568b2cf9bd2e54d73b615a28c034ea64736f6c634300080000333c73766720786d6c6e733d27687474703a2f2f7777772e77332e6f72672f323030302f73766727207072657365727665417370656374526174696f3d27784d696e594d696e206d656574272076696577426f783d273020302033353020333530273e3c7374796c653e2e62617365207b2066696c6c3a2077686974653b20666f6e742d66616d696c793a2073657269663b20666f6e742d73697a653a20323470783b207d3c2f7374796c653e3c726563742077696474683d273130302527206865696768743d2731303025272066696c6c3d27626c61636b27202f3e3c7465787420783d273530252720793d273530252720636c6173733d27626173652720646f6d696e616e742d626173656c696e653d276d6964646c652720746578742d616e63686f723d276d6964646c65273e",
  "linkReferences": {},
  "deployedLinkReferences": {}
}