{
  "_format": "hh-sol-artifact-1",
  "contractName": "NFT",
  "sourceName": "contracts/NFT.sol",
  "abi": [
    {
      "inputs": [],
      "stateMutability": "nonpayable",
      "type": "constructor"
    },
    {
      "anonymous": false,
      "inputs": [
        {
          "indexed": true,
          "internalType": "address",
          "name": "owner",
          "type": "address"
        },
        {
          "indexed": true,
          "internalType": "address",
          "name": "approved",
          "type": "address"
        },
        {
          "indexed": true,
          "internalType": "uint256",
          "name": "tokenId",
          "type": "uint256"
        }
      ],
      "name": "Approval",
      "type": "event"
    },
    {
      "anonymous": false,
      "inputs": [
        {
          "indexed": true,
          "internalType": "address",
          "name": "owner",
          "type": "address"
        },
        {
          "indexed": true,
          "internalType": "address",
          "name": "operator",
          "type": "address"
        },
        {
          "indexed": false,
          "internalType": "bool",
          "name": "approved",
          "type": "bool"
        }
      ],
      "name": "ApprovalForAll",
      "type": "event"
    },
    {
      "anonymous": false,
      "inputs": [
        {
          "indexed": true,
          "internalType": "address",
          "name": "from",
          "type": "address"
        },
        {
          "indexed": true,
          "internalType": "address",
          "name": "to",
          "type": "address"
        },
        {
          "indexed": true,
          "internalType": "uint256",
          "name": "tokenId",
          "type": "uint256"
        }
      ],
      "name": "Transfer",
      "type": "event"
    },
    {
      "inputs": [
        {
          "internalType": "address",
          "name": "to",
          "type": "address"
        },
        {
          "internalType": "uint256",
          "name": "tokenId",
          "type": "uint256"
        }
      ],
      "name": "approve",
      "outputs": [],
      "stateMutability": "nonpayable",
      "type": "function"
    },
    {
      "inputs": [
        {
          "internalType": "address",
          "name": "owner",
          "type": "address"
        }
      ],
      "name": "balanceOf",
      "outputs": [
        {
          "internalType": "uint256",
          "name": "",
          "type": "uint256"
        }
      ],
      "stateMutability": "view",
      "type": "function"
    },
    {
      "inputs": [
        {
          "internalType": "uint256",
          "name": "tokenId",
          "type": "uint256"
        }
      ],
      "name": "getApproved",
      "outputs": [
        {
          "internalType": "address",
          "name": "",
          "type": "address"
        }
      ],
      "stateMutability": "view",
      "type": "function"
    },
    {
      "inputs": [
        {
          "internalType": "address",
          "name": "owner",
          "type": "address"
        },
        {
          "internalType": "address",
          "name": "operator",
          "type": "address"
        }
      ],
      "name": "isApprovedForAll",
      "outputs": [
        {
          "internalType": "bool",
          "name": "",
          "type": "bool"
        }
      ],
      "stateMutability": "view",
      "type": "function"
    },
    {
      "inputs": [],
      "name": "mintCatNFT",
      "outputs": [],
      "stateMutability": "nonpayable",
      "type": "function"
    },
    {
      "inputs": [],
      "name": "name",
      "outputs": [
        {
          "internalType": "string",
          "name": "",
          "type": "string"
        }
      ],
      "stateMutability": "view",
      "type": "function"
    },
    {
      "inputs": [
        {
          "internalType": "uint256",
          "name": "tokenId",
          "type": "uint256"
        }
      ],
      "name": "ownerOf",
      "outputs": [
        {
          "internalType": "address",
          "name": "",
          "type": "address"
        }
      ],
      "stateMutability": "view",
      "type": "function"
    },
    {
      "inputs": [
        {
          "internalType": "address",
          "name": "from",
          "type": "address"
        },
        {
          "internalType": "address",
          "name": "to",
          "type": "address"
        },
        {
          "internalType": "uint256",
          "name": "tokenId",
          "type": "uint256"
        }
      ],
      "name": "safeTransferFrom",
      "outputs": [],
      "stateMutability": "nonpayable",
      "type": "function"
    },
    {
      "inputs": [
        {
          "internalType": "address",
          "name": "from",
          "type": "address"
        },
        {
          "internalType": "address",
          "name": "to",
          "type": "address"
        },
        {
          "internalType": "uint256",
          "name": "tokenId",
          "type": "uint256"
        },
        {
          "internalType": "bytes",
          "name": "_data",
          "type": "bytes"
        }
      ],
      "name": "safeTransferFrom",
      "outputs": [],
      "stateMutability": "nonpayable",
      "type": "function"
    },
    {
      "inputs": [
        {
          "internalType": "address",
          "name": "operator",
          "type": "address"
        },
        {
          "internalType": "bool",
          "name": "approved",
          "type": "bool"
        }
      ],
      "name": "setApprovalForAll",
      "outputs": [],
      "stateMutability": "nonpayable",
      "type": "function"
    },
    {
      "inputs": [
        {
          "internalType": "bytes4",
          "name": "interfaceId",
          "type": "bytes4"
        }
      ],
      "name": "supportsInterface",
      "outputs": [
        {
          "internalType": "bool",
          "name": "",
          "type": "bool"
        }
      ],
      "stateMutability": "view",
      "type": "function"
    },
    {
      "inputs": [],
      "name": "symbol",
      "outputs": [
        {
          "internalType": "string",
          "name": "",
          "type": "string"
        }
      ],
      "stateMutability": "view",
      "type": "function"
    },
    {
      "inputs": [
        {
          "internalType": "uint256",
          "name": "tokenId",
          "type": "uint256"
        }
      ],
      "name": "tokenURI",
      "outputs": [
        {
          "internalType": "string",
          "name": "",
          "type": "string"
        }
      ],
      "stateMutability": "view",
      "type": "function"
    },
    {
      "inputs": [
        {
          "internalType": "address",
          "name": "from",
          "type": "address"
        },
        {
          "internalType": "address",
          "name": "to",
          "type": "address"
        },
        {
          "internalType": "uint256",
          "name": "tokenId",
          "type": "uint256"
        }
      ],
      "name": "transferFrom",
      "outputs": [],
      "stateMutability": "nonpayable",
      "type": "function"
    }
  ],
  "bytecode": "0x60806040526040518061040001604052806040518060400160405280600481526020017f487567650000000000000000000000000000000000000000000000000000000081525081526020016040518060400160405280600381526020017f426967000000000000000000000000000000000000000000000000000000000081525081526020016040518060400160405280600581526020017f536d616c6c00000000000000000000000000000000000000000000000000000081525081526020016040518060400160405280600481526020017f54696e790000000000000000000000000000000000000000000000000000000081525081526020016040518060400160405280600981526020017f4d696e697363756c65000000000000000000000000000000000000000000000081525081526020016040518060400160405280600981526020017f556c74726157696465000000000000000000000000000000000000000000000081525081526020016040518060400160405280600481526020017f426162790000000000000000000000000000000000000000000000000000000081525081526020016040518060400160405280600881526020017f456e6f726d6f757300000000000000000000000000000000000000000000000081525081526020016040518060400160405280600581526020017f4d6963726f00000000000000000000000000000000000000000000000000000081525081526020016040518060400160405280600781526020017f496d6d656e73650000000000000000000000000000000000000000000000000081525081526020016040518060400160405280600881526020017f53697a6561626c6500000000000000000000000000000000000000000000000081525081526020016040518060400160405280600b81526020017f5375627374616e7469616c00000000000000000000000000000000000000000081525081526020016040518060400160405280600881526020017f436f6c6f7373616c00000000000000000000000000000000000000000000000081525081526020016040518060400160405280600581526020017f477265617400000000000000000000000000000000000000000000000000000081525081526020016040518060400160405280600781526020017f4d6173736976650000000000000000000000000000000000000000000000000081525081526020016040518060400160405280600781526020017f576569676874790000000000000000000000000000000000000000000000000081525081526020016040518060400160405280600b81526020017f4675636b696e674875676500000000000000000000000000000000000000000081525081526020016040518060400160405280600a81526020017f4675636b696e674269670000000000000000000000000000000000000000000081525081526020016040518060400160405280600c81526020017f4675636b696e67536d616c6c000000000000000000000000000000000000000081525081526020016040518060400160405280600b81526020017f4675636b696e6754696e7900000000000000000000000000000000000000000081525081526020016040518060400160405280601081526020017f4675636b696e674d696e697363756c650000000000000000000000000000000081525081526020016040518060400160405280601081526020017f4675636b696e67556c747261576964650000000000000000000000000000000081525081526020016040518060400160405280600b81526020017f4675636b696e674261627900000000000000000000000000000000000000000081525081526020016040518060400160405280600f81526020017f4675636b696e67456e6f726d6f7573000000000000000000000000000000000081525081526020016040518060400160405280600c81526020017f4675636b696e674d6963726f000000000000000000000000000000000000000081525081526020016040518060400160405280600e81526020017f4675636b696e67496d6d656e736500000000000000000000000000000000000081525081526020016040518060400160405280600f81526020017f4675636b696e6753697a6561626c65000000000000000000000000000000000081525081526020016040518060400160405280601281526020017f4675636b696e675375627374616e7469616c000000000000000000000000000081525081526020016040518060400160405280600f81526020017f4675636b696e67436f6c6f7373616c000000000000000000000000000000000081525081526020016040518060400160405280600c81526020017f4675636b696e674772656174000000000000000000000000000000000000000081525081526020016040518060400160405280600e81526020017f4675636b696e674d61737369766500000000000000000000000000000000000081525081526020016040518060400160405280600e81526020017f4675636b696e675765696768747900000000000000000000000000000000000081525081525060089060206200078092919062001455565b506040518061040001604052806040518060400160405280600581526020017f426c61636b00000000000000000000000000000000000000000000000000000081525081526020016040518060400160405280600581526020017f576869746500000000000000000000000000000000000000000000000000000081525081526020016040518060400160405280600581526020017f426569676500000000000000000000000000000000000000000000000000000081525081526020016040518060400160405280600381526020017f526564000000000000000000000000000000000000000000000000000000000081525081526020016040518060400160405280600481526020017f426c75650000000000000000000000000000000000000000000000000000000081525081526020016040518060400160405280600481526020017f477265790000000000000000000000000000000000000000000000000000000081525081526020016040518060400160405280600681526020017f59656c6c6f77000000000000000000000000000000000000000000000000000081525081526020016040518060400160405280600581526020017f42726f776e00000000000000000000000000000000000000000000000000000081525081526020016040518060400160405280600581526020017f477265656e00000000000000000000000000000000000000000000000000000081525081526020016040518060400160405280600681526020017f507572706c65000000000000000000000000000000000000000000000000000081525081526020016040518060400160405280600a81526020017f49726964657363616e740000000000000000000000000000000000000000000081525081526020016040518060400160405280600981526020017f537061726b6c696e67000000000000000000000000000000000000000000000081525081526020016040518060400160405280600981526020017f4461726b426c61636b000000000000000000000000000000000000000000000081525081526020016040518060400160405280600981526020017f4461726b5768697465000000000000000000000000000000000000000000000081525081526020016040518060400160405280600981526020017f4461726b4265696765000000000000000000000000000000000000000000000081525081526020016040518060400160405280600781526020017f4461726b5265640000000000000000000000000000000000000000000000000081525081526020016040518060400160405280600881526020017f4461726b426c756500000000000000000000000000000000000000000000000081525081526020016040518060400160405280600881526020017f4461726b4772657900000000000000000000000000000000000000000000000081525081526020016040518060400160405280600a81526020017f4461726b59656c6c6f770000000000000000000000000000000000000000000081525081526020016040518060400160405280600981526020017f4461726b42726f776e000000000000000000000000000000000000000000000081525081526020016040518060400160405280600981526020017f4461726b477265656e000000000000000000000000000000000000000000000081525081526020016040518060400160405280600a81526020017f4461726b507572706c650000000000000000000000000000000000000000000081525081526020016040518060400160405280600a81526020017f4c69676874426c61636b0000000000000000000000000000000000000000000081525081526020016040518060400160405280600a81526020017f4c6967687457686974650000000000000000000000000000000000000000000081525081526020016040518060400160405280600a81526020017f4c6967687442656967650000000000000000000000000000000000000000000081525081526020016040518060400160405280600881526020017f4c6967687452656400000000000000000000000000000000000000000000000081525081526020016040518060400160405280600981526020017f4c69676874426c7565000000000000000000000000000000000000000000000081525081526020016040518060400160405280600981526020017f4c6967687447726579000000000000000000000000000000000000000000000081525081526020016040518060400160405280600b81526020017f4c6967687459656c6c6f7700000000000000000000000000000000000000000081525081526020016040518060400160405280600a81526020017f4c6967687442726f776e0000000000000000000000000000000000000000000081525081526020016040518060400160405280600a81526020017f4c69676874477265656e0000000000000000000000000000000000000000000081525081526020016040518060400160405280600b81526020017f4c69676874507572706c65000000000000000000000000000000000000000000815250815250600990602062000efd92919062001455565b50604051806101c001604052806040518060400160405280600681526020017f4a6167756172000000000000000000000000000000000000000000000000000081525081526020016040518060400160405280600581526020017f546967657200000000000000000000000000000000000000000000000000000081525081526020016040518060400160405280600481526020017f4c696f6e0000000000000000000000000000000000000000000000000000000081525081526020016040518060400160405280600681526020017f436f75676172000000000000000000000000000000000000000000000000000081525081526020016040518060400160405280600481526020017f4d696e780000000000000000000000000000000000000000000000000000000081525081526020016040518060400160405280600681526020017f426f62636174000000000000000000000000000000000000000000000000000081525081526020016040518060400160405280600881526020017f507573737963617400000000000000000000000000000000000000000000000081525081526020016040518060400160405280600781526020017f436865657461680000000000000000000000000000000000000000000000000081525081526020016040518060400160405280600a81526020017f4a756e676c65204361740000000000000000000000000000000000000000000081525081526020016040518060400160405280600781526020017f4c656f706172640000000000000000000000000000000000000000000000000081525081526020016040518060400160405280600381526020017f436174000000000000000000000000000000000000000000000000000000000081525081526020016040518060400160405280601181526020017f456e64616e67657265644368656574616800000000000000000000000000000081525081526020016040518060400160405280601481526020017f456e64616e67657265644a756e676c652043617400000000000000000000000081525081526020016040518060400160405280601181526020017f456e64616e67657265644c656f70617264000000000000000000000000000000815250815250600a90600e62001254929190620014bc565b5060405180610160016040528061012f815260200162004ee361012f9139600b90805190602001906200128992919062001523565b503480156200129757600080fd5b506040518060400160405280600681526020017f6361744e465400000000000000000000000000000000000000000000000000008152506040518060400160405280600381526020017f434154000000000000000000000000000000000000000000000000000000000081525081600090805190602001906200131c92919062001523565b5080600190805190602001906200133592919062001523565b505050620013836040518060400160405280601881526020017f54686973206973206d79204e465420636f6e74726163742100000000000000008152506200138960201b62000e401760201c565b6200176e565b6200142981604051602401620013a0919062001682565b6040516020818303038152906040527f41304fac000000000000000000000000000000000000000000000000000000007bffffffffffffffffffffffffffffffffffffffffffffffffffffffff19166020820180517bffffffffffffffffffffffffffffffffffffffffffffffffffffffff83818316178352505050506200142c60201b60201c565b50565b60008151905060006a636f6e736f6c652e6c6f679050602083016000808483855afa5050505050565b828054828255906000526020600020908101928215620014a9579160200282015b82811115620014a85782518290805190602001906200149792919062001523565b509160200191906001019062001476565b5b509050620014b89190620015b4565b5090565b82805482825590600052602060002090810192821562001510579160200282015b828111156200150f578251829080519060200190620014fe92919062001523565b5091602001919060010190620014dd565b5b5090506200151f9190620015b4565b5090565b8280546200153190620016f8565b90600052602060002090601f016020900481019282620015555760008555620015a1565b82601f106200157057805160ff1916838001178555620015a1565b82800160010185558215620015a1579182015b82811115620015a057825182559160200191906001019062001583565b5b509050620015b09190620015dc565b5090565b5b80821115620015d85760008181620015ce9190620015fb565b50600101620015b5565b5090565b5b80821115620015f7576000816000905550600101620015dd565b5090565b5080546200160990620016f8565b6000825580601f106200161d57506200163e565b601f0160209004906000526020600020908101906200163d9190620015dc565b5b50565b60006200164e82620016a6565b6200165a8185620016b1565b93506200166c818560208601620016c2565b62001677816200175d565b840191505092915050565b600060208201905081810360008301526200169e818462001641565b905092915050565b600081519050919050565b600082825260208201905092915050565b60005b83811015620016e2578082015181840152602081019050620016c5565b83811115620016f2576000848401525b50505050565b600060028204905060018216806200171157607f821691505b602082108114156200172857620017276200172e565b5b50919050565b7f4e487b7100000000000000000000000000000000000000000000000000000000600052602260045260246000fd5b6000601f19601f8301169050919050565b613765806200177e6000396000f3fe608060405234801561001057600080fd5b50600436106100ea5760003560e01c806370a082311161008c578063a22cb46511610066578063a22cb46514610249578063b88d4fde14610265578063c87b56dd14610281578063e985e9c5146102b1576100ea565b806370a08231146101f157806379b351d31461022157806395d89b411461022b576100ea565b8063095ea7b3116100c8578063095ea7b31461016d57806323b872dd1461018957806342842e0e146101a55780636352211e146101c1576100ea565b806301ffc9a7146100ef57806306fdde031461011f578063081812fc1461013d575b600080fd5b6101096004803603810190610104919061242d565b6102e1565b6040516101169190613000565b60405180910390f35b6101276103c3565b604051610134919061301b565b60405180910390f35b6101576004803603810190610152919061247f565b610455565b6040516101649190612f99565b60405180910390f35b610187600480360381019061018291906123f1565b6104da565b005b6101a3600480360381019061019e91906122eb565b6105f2565b005b6101bf60048036038101906101ba91906122eb565b610652565b005b6101db60048036038101906101d6919061247f565b610672565b6040516101e89190612f99565b60405180910390f35b61020b60048036038101906102069190612286565b610724565b604051610218919061327b565b60405180910390f35b6102296107dc565b005b6102336109e5565b604051610240919061301b565b60405180910390f35b610263600480360381019061025e91906123b5565b610a77565b005b61027f600480360381019061027a919061233a565b610bf8565b005b61029b6004803603810190610296919061247f565b610c5a565b6040516102a8919061301b565b60405180910390f35b6102cb60048036038101906102c691906122af565b610dac565b6040516102d89190613000565b60405180910390f35b60007f80ac58cd000000000000000000000000000000000000000000000000000000007bffffffffffffffffffffffffffffffffffffffffffffffffffffffff1916827bffffffffffffffffffffffffffffffffffffffffffffffffffffffff191614806103ac57507f5b5e139f000000000000000000000000000000000000000000000000000000007bffffffffffffffffffffffffffffffffffffffffffffffffffffffff1916827bffffffffffffffffffffffffffffffffffffffffffffffffffffffff1916145b806103bc57506103bb82610ed9565b5b9050919050565b6060600080546103d29061351a565b80601f01602080910402602001604051908101604052809291908181526020018280546103fe9061351a565b801561044b5780601f106104205761010080835404028352916020019161044b565b820191906000526020600020905b81548152906001019060200180831161042e57829003601f168201915b5050505050905090565b600061046082610f43565b61049f576040517f08c379a0000000000000000000000000000000000000000000000000000000008152600401610496906131db565b60405180910390fd5b6004600083815260200190815260200160002060009054906101000a900473ffffffffffffffffffffffffffffffffffffffff169050919050565b60006104e582610672565b90508073ffffffffffffffffffffffffffffffffffffffff168373ffffffffffffffffffffffffffffffffffffffff161415610556576040517f08c379a000000000000000000000000000000000000000000000000000000000815260040161054d9061323b565b60405180910390fd5b8073ffffffffffffffffffffffffffffffffffffffff16610575610faf565b73ffffffffffffffffffffffffffffffffffffffff1614806105a457506105a38161059e610faf565b610dac565b5b6105e3576040517f08c379a00000000000000000000000000000000000000000000000000000000081526004016105da9061311b565b60405180910390fd5b6105ed8383610fb7565b505050565b6106036105fd610faf565b82611070565b610642576040517f08c379a00000000000000000000000000000000000000000000000000000000081526004016106399061325b565b60405180910390fd5b61064d83838361114e565b505050565b61066d83838360405180602001604052806000815250610bf8565b505050565b6000806002600084815260200190815260200160002060009054906101000a900473ffffffffffffffffffffffffffffffffffffffff169050600073ffffffffffffffffffffffffffffffffffffffff168173ffffffffffffffffffffffffffffffffffffffff16141561071b576040517f08c379a00000000000000000000000000000000000000000000000000000000081526004016107129061315b565b60405180910390fd5b80915050919050565b60008073ffffffffffffffffffffffffffffffffffffffff168273ffffffffffffffffffffffffffffffffffffffff161415610795576040517f08c379a000000000000000000000000000000000000000000000000000000000815260040161078c9061313b565b60405180910390fd5b600360008373ffffffffffffffffffffffffffffffffffffffff1673ffffffffffffffffffffffffffffffffffffffff168152602001908152602001600020549050919050565b60006107e860076113aa565b905060006107f5826113b8565b90506000610802836114d6565b9050600061080f846115f4565b9050600083838360405160200161082893929190612e6c565b60405160208183030381529060405290506000600b8260405160200161084f929190612e9d565b604051602081830303815290604052905061089e6040518060400160405280600a81526020017f46696e616c205356473a00000000000000000000000000000000000000000000815250610e40565b6108dc6040518060400160405280601081526020017f2d2d2d2d2d2d2d2d2d2d2d2d2d2d2d2d00000000000000000000000000000000815250610e40565b6108e581610e40565b6109236040518060400160405280601081526020017f2d2d2d2d2d2d2d2d2d2d2d2d2d2d2d2d00000000000000000000000000000000815250610e40565b60006109578361093284611712565b604051602001610943929190612f10565b604051602081830303815290604052611712565b905060008160405160200161096c9190612f77565b604051602081830303815290604052905061098733896118d0565b61099188826118ee565b6109d16040518060400160405280601581526020017f4d696e746564204e4654202320257320746f20257300000000000000000000008152508933611962565b6109db6007611a01565b5050505050505050565b6060600180546109f49061351a565b80601f0160208091040260200160405190810160405280929190818152602001828054610a209061351a565b8015610a6d5780601f10610a4257610100808354040283529160200191610a6d565b820191906000526020600020905b815481529060010190602001808311610a5057829003601f168201915b5050505050905090565b610a7f610faf565b73ffffffffffffffffffffffffffffffffffffffff168273ffffffffffffffffffffffffffffffffffffffff161415610aed576040517f08c379a0000000000000000000000000000000000000000000000000000000008152600401610ae4906130db565b60405180910390fd5b8060056000610afa610faf565b73ffffffffffffffffffffffffffffffffffffffff1673ffffffffffffffffffffffffffffffffffffffff16815260200190815260200160002060008473ffffffffffffffffffffffffffffffffffffffff1673ffffffffffffffffffffffffffffffffffffffff16815260200190815260200160002060006101000a81548160ff0219169083151502179055508173ffffffffffffffffffffffffffffffffffffffff16610ba7610faf565b73ffffffffffffffffffffffffffffffffffffffff167f17307eab39ab6107e8899845ad3d59bd9653f200f220920489ca2b5937696c3183604051610bec9190613000565b60405180910390a35050565b610c09610c03610faf565b83611070565b610c48576040517f08c379a0000000000000000000000000000000000000000000000000000000008152600401610c3f9061325b565b60405180910390fd5b610c5484848484611a17565b50505050565b6060610c6582610f43565b610ca4576040517f08c379a0000000000000000000000000000000000000000000000000000000008152600401610c9b906131bb565b60405180910390fd5b6000600660008481526020019081526020016000208054610cc49061351a565b80601f0160208091040260200160405190810160405280929190818152602001828054610cf09061351a565b8015610d3d5780601f10610d1257610100808354040283529160200191610d3d565b820191906000526020600020905b815481529060010190602001808311610d2057829003601f168201915b505050505090506000610d4e611a73565b9050600081511415610d64578192505050610da7565b600082511115610d99578082604051602001610d81929190612e48565b60405160208183030381529060405292505050610da7565b610da284611a8a565b925050505b919050565b6000600560008473ffffffffffffffffffffffffffffffffffffffff1673ffffffffffffffffffffffffffffffffffffffff16815260200190815260200160002060008373ffffffffffffffffffffffffffffffffffffffff1673ffffffffffffffffffffffffffffffffffffffff16815260200190815260200160002060009054906101000a900460ff16905092915050565b610ed681604051602401610e54919061301b565b6040516020818303038152906040527f41304fac000000000000000000000000000000000000000000000000000000007bffffffffffffffffffffffffffffffffffffffffffffffffffffffff19166020820180517bffffffffffffffffffffffffffffffffffffffffffffffffffffffff8381831617835250505050611b31565b50565b60007f01ffc9a7000000000000000000000000000000000000000000000000000000007bffffffffffffffffffffffffffffffffffffffffffffffffffffffff1916827bffffffffffffffffffffffffffffffffffffffffffffffffffffffff1916149050919050565b60008073ffffffffffffffffffffffffffffffffffffffff166002600084815260200190815260200160002060009054906101000a900473ffffffffffffffffffffffffffffffffffffffff1673ffffffffffffffffffffffffffffffffffffffff1614159050919050565b600033905090565b816004600083815260200190815260200160002060006101000a81548173ffffffffffffffffffffffffffffffffffffffff021916908373ffffffffffffffffffffffffffffffffffffffff160217905550808273ffffffffffffffffffffffffffffffffffffffff1661102a83610672565b73ffffffffffffffffffffffffffffffffffffffff167f8c5be1e5ebec7d5bd14f71427d1e84f3dd0314c0f7b2291e5b200ac8c7c3b92560405160405180910390a45050565b600061107b82610f43565b6110ba576040517f08c379a00000000000000000000000000000000000000000000000000000000081526004016110b1906130fb565b60405180910390fd5b60006110c583610672565b90508073ffffffffffffffffffffffffffffffffffffffff168473ffffffffffffffffffffffffffffffffffffffff16148061113457508373ffffffffffffffffffffffffffffffffffffffff1661111c84610455565b73ffffffffffffffffffffffffffffffffffffffff16145b8061114557506111448185610dac565b5b91505092915050565b8273ffffffffffffffffffffffffffffffffffffffff1661116e82610672565b73ffffffffffffffffffffffffffffffffffffffff16146111c4576040517f08c379a00000000000000000000000000000000000000000000000000000000081526004016111bb906131fb565b60405180910390fd5b600073ffffffffffffffffffffffffffffffffffffffff168273ffffffffffffffffffffffffffffffffffffffff161415611234576040517f08c379a000000000000000000000000000000000000000000000000000000000815260040161122b906130bb565b60405180910390fd5b61123f838383611b5a565b61124a600082610fb7565b6001600360008573ffffffffffffffffffffffffffffffffffffffff1673ffffffffffffffffffffffffffffffffffffffff168152602001908152602001600020600082825461129a9190613430565b925050819055506001600360008473ffffffffffffffffffffffffffffffffffffffff1673ffffffffffffffffffffffffffffffffffffffff16815260200190815260200160002060008282546112f1919061334f565b92505081905550816002600083815260200190815260200160002060006101000a81548173ffffffffffffffffffffffffffffffffffffffff021916908373ffffffffffffffffffffffffffffffffffffffff160217905550808273ffffffffffffffffffffffffffffffffffffffff168473ffffffffffffffffffffffffffffffffffffffff167fddf252ad1be2c89b69c2b068fc378daa952ba7f163c4a11628f55a4df523b3ef60405160405180910390a4505050565b600081600001549050919050565b606060006113ec6113c884611b5f565b6040516020016113d89190612f55565b604051602081830303815290604052611d0c565b9050600880549050816113ff9190613595565b90506008818154811061143b577f4e487b7100000000000000000000000000000000000000000000000000000000600052603260045260246000fd5b9060005260206000200180546114509061351a565b80601f016020809104026020016040519081016040528092919081815260200182805461147c9061351a565b80156114c95780601f1061149e576101008083540402835291602001916114c9565b820191906000526020600020905b8154815290600101906020018083116114ac57829003601f168201915b5050505050915050919050565b6060600061150a6114e684611b5f565b6040516020016114f69190612eee565b604051602081830303815290604052611d0c565b90506009805490508161151d9190613595565b905060098181548110611559577f4e487b7100000000000000000000000000000000000000000000000000000000600052603260045260246000fd5b90600052602060002001805461156e9061351a565b80601f016020809104026020016040519081016040528092919081815260200182805461159a9061351a565b80156115e75780601f106115bc576101008083540402835291602001916115e7565b820191906000526020600020905b8154815290600101906020018083116115ca57829003601f168201915b5050505050915050919050565b6060600061162861160484611b5f565b6040516020016116149190612ecc565b604051602081830303815290604052611d0c565b9050600a805490508161163b9190613595565b9050600a8181548110611677577f4e487b7100000000000000000000000000000000000000000000000000000000600052603260045260246000fd5b90600052602060002001805461168c9061351a565b80601f01602080910402602001604051908101604052809291908181526020018280546116b89061351a565b80156117055780601f106116da57610100808354040283529160200191611705565b820191906000526020600020905b8154815290600101906020018083116116e857829003601f168201915b5050505050915050919050565b6060600082519050600081141561173b57604051806020016040528060008152509150506118cb565b6000600360028361174c919061334f565b61175691906133a5565b600461176291906133d6565b90506000602082611773919061334f565b67ffffffffffffffff8111156117b2577f4e487b7100000000000000000000000000000000000000000000000000000000600052604160045260246000fd5b6040519080825280601f01601f1916602001820160405280156117e45781602001600182028036833780820191505090505b50905060006040518060600160405280604081526020016136f0604091399050600181016020830160005b868110156118885760038101905062ffffff818a015116603f8160121c168401518060081b905060ff603f83600c1c1686015116810190508060081b905060ff603f8360061c1686015116810190508060081b905060ff603f831686015116810190508060e01b9050808452600484019350505061180f565b5060038606600181146118a257600281146118b2576118bd565b613d3d60f01b60028303526118bd565b603d60f81b60018303525b508484525050819450505050505b919050565b6118ea828260405180602001604052806000815250611d3f565b5050565b6118f782610f43565b611936576040517f08c379a000000000000000000000000000000000000000000000000000000000815260040161192d9061317b565b60405180910390fd5b8060066000848152602001908152602001600020908051906020019061195d929190612112565b505050565b6119fc83838360405160240161197a9392919061303d565b6040516020818303038152906040527fe3849f79000000000000000000000000000000000000000000000000000000007bffffffffffffffffffffffffffffffffffffffffffffffffffffffff19166020820180517bffffffffffffffffffffffffffffffffffffffffffffffffffffffff8381831617835250505050611b31565b505050565b6001816000016000828254019250508190555050565b611a2284848461114e565b611a2e84848484611d9a565b611a6d576040517f08c379a0000000000000000000000000000000000000000000000000000000008152600401611a649061307b565b60405180910390fd5b50505050565b606060405180602001604052806000815250905090565b6060611a9582610f43565b611ad4576040517f08c379a0000000000000000000000000000000000000000000000000000000008152600401611acb9061321b565b60405180910390fd5b6000611ade611a73565b90506000815111611afe5760405180602001604052806000815250611b29565b80611b0884611b5f565b604051602001611b19929190612e48565b6040516020818303038152906040525b915050919050565b60008151905060006a636f6e736f6c652e6c6f679050602083016000808483855afa5050505050565b505050565b60606000821415611ba7576040518060400160405280600181526020017f30000000000000000000000000000000000000000000000000000000000000008152509050611d07565b600082905060005b60008214611bd9578080611bc29061354c565b915050600a82611bd291906133a5565b9150611baf565b60008167ffffffffffffffff811115611c1b577f4e487b7100000000000000000000000000000000000000000000000000000000600052604160045260246000fd5b6040519080825280601f01601f191660200182016040528015611c4d5781602001600182028036833780820191505090505b5090505b60008514611d0057600182611c669190613430565b9150600a85611c759190613595565b6030611c81919061334f565b60f81b818381518110611cbd577f4e487b7100000000000000000000000000000000000000000000000000000000600052603260045260246000fd5b60200101907effffffffffffffffffffffffffffffffffffffffffffffffffffffffffffff1916908160001a905350600a85611cf991906133a5565b9450611c51565b8093505050505b919050565b600081604051602001611d1f9190612e31565b6040516020818303038152906040528051906020012060001c9050919050565b611d498383611f31565b611d566000848484611d9a565b611d95576040517f08c379a0000000000000000000000000000000000000000000000000000000008152600401611d8c9061307b565b60405180910390fd5b505050565b6000611dbb8473ffffffffffffffffffffffffffffffffffffffff166120ff565b15611f24578373ffffffffffffffffffffffffffffffffffffffff1663150b7a02611de4610faf565b8786866040518563ffffffff1660e01b8152600401611e069493929190612fb4565b602060405180830381600087803b158015611e2057600080fd5b505af1925050508015611e5157506040513d601f19601f82011682018060405250810190611e4e9190612456565b60015b611ed4573d8060008114611e81576040519150601f19603f3d011682016040523d82523d6000602084013e611e86565b606091505b50600081511415611ecc576040517f08c379a0000000000000000000000000000000000000000000000000000000008152600401611ec39061307b565b60405180910390fd5b805181602001fd5b63150b7a0260e01b7bffffffffffffffffffffffffffffffffffffffffffffffffffffffff1916817bffffffffffffffffffffffffffffffffffffffffffffffffffffffff191614915050611f29565b600190505b949350505050565b600073ffffffffffffffffffffffffffffffffffffffff168273ffffffffffffffffffffffffffffffffffffffff161415611fa1576040517f08c379a0000000000000000000000000000000000000000000000000000000008152600401611f989061319b565b60405180910390fd5b611faa81610f43565b15611fea576040517f08c379a0000000000000000000000000000000000000000000000000000000008152600401611fe19061309b565b60405180910390fd5b611ff660008383611b5a565b6001600360008473ffffffffffffffffffffffffffffffffffffffff1673ffffffffffffffffffffffffffffffffffffffff1681526020019081526020016000206000828254612046919061334f565b92505081905550816002600083815260200190815260200160002060006101000a81548173ffffffffffffffffffffffffffffffffffffffff021916908373ffffffffffffffffffffffffffffffffffffffff160217905550808273ffffffffffffffffffffffffffffffffffffffff16600073ffffffffffffffffffffffffffffffffffffffff167fddf252ad1be2c89b69c2b068fc378daa952ba7f163c4a11628f55a4df523b3ef60405160405180910390a45050565b600080823b905060008111915050919050565b82805461211e9061351a565b90600052602060002090601f0160209004810192826121405760008555612187565b82601f1061215957805160ff1916838001178555612187565b82800160010185558215612187579182015b8281111561218657825182559160200191906001019061216b565b5b5090506121949190612198565b5090565b5b808211156121b1576000816000905550600101612199565b5090565b60006121c86121c3846132c7565b613296565b9050828152602081018484840111156121e057600080fd5b6121eb8482856134d8565b509392505050565b60008135905061220281613693565b92915050565b600081359050612217816136aa565b92915050565b60008135905061222c816136c1565b92915050565b600081519050612241816136c1565b92915050565b600082601f83011261225857600080fd5b81356122688482602086016121b5565b91505092915050565b600081359050612280816136d8565b92915050565b60006020828403121561229857600080fd5b60006122a6848285016121f3565b91505092915050565b600080604083850312156122c257600080fd5b60006122d0858286016121f3565b92505060206122e1858286016121f3565b9150509250929050565b60008060006060848603121561230057600080fd5b600061230e868287016121f3565b935050602061231f868287016121f3565b925050604061233086828701612271565b9150509250925092565b6000806000806080858703121561235057600080fd5b600061235e878288016121f3565b945050602061236f878288016121f3565b935050604061238087828801612271565b925050606085013567ffffffffffffffff81111561239d57600080fd5b6123a987828801612247565b91505092959194509250565b600080604083850312156123c857600080fd5b60006123d6858286016121f3565b92505060206123e785828601612208565b9150509250929050565b6000806040838503121561240457600080fd5b6000612412858286016121f3565b925050602061242385828601612271565b9150509250929050565b60006020828403121561243f57600080fd5b600061244d8482850161221d565b91505092915050565b60006020828403121561246857600080fd5b600061247684828501612232565b91505092915050565b60006020828403121561249157600080fd5b600061249f84828501612271565b91505092915050565b6124b181613464565b82525050565b6124c081613476565b82525050565b60006124d18261330c565b6124db8185613322565b93506124eb8185602086016134e7565b6124f481613682565b840191505092915050565b600061250a82613317565b6125148185613333565b93506125248185602086016134e7565b61252d81613682565b840191505092915050565b600061254382613317565b61254d8185613344565b935061255d8185602086016134e7565b80840191505092915050565b600081546125768161351a565b6125808186613344565b9450600182166000811461259b57600181146125ac576125df565b60ff198316865281860193506125df565b6125b5856132f7565b60005b838110156125d7578154818901526001820191506020810190506125b8565b838801955050505b50505092915050565b60006125f5603283613333565b91507f4552433732313a207472616e7366657220746f206e6f6e20455243373231526560008301527f63656976657220696d706c656d656e74657200000000000000000000000000006020830152604082019050919050565b600061265b601c83613333565b91507f4552433732313a20746f6b656e20616c7265616479206d696e746564000000006000830152602082019050919050565b600061269b600a83613344565b91507f54484952445f574f5244000000000000000000000000000000000000000000006000830152600a82019050919050565b60006126db602483613333565b91507f4552433732313a207472616e7366657220746f20746865207a65726f2061646460008301527f72657373000000000000000000000000000000000000000000000000000000006020830152604082019050919050565b6000612741601983613333565b91507f4552433732313a20617070726f766520746f2063616c6c6572000000000000006000830152602082019050919050565b6000612781600b83613344565b91507f5345434f4e445f574f52440000000000000000000000000000000000000000006000830152600b82019050919050565b60006127c1602c83613333565b91507f4552433732313a206f70657261746f7220717565727920666f72206e6f6e657860008301527f697374656e7420746f6b656e00000000000000000000000000000000000000006020830152604082019050919050565b6000612827600d83613344565b91507f3c2f746578743e3c2f7376673e000000000000000000000000000000000000006000830152600d82019050919050565b6000612867603883613333565b91507f4552433732313a20617070726f76652063616c6c6572206973206e6f74206f7760008301527f6e6572206e6f7220617070726f76656420666f7220616c6c00000000000000006020830152604082019050919050565b60006128cd602a83613333565b91507f4552433732313a2062616c616e636520717565727920666f7220746865207a6560008301527f726f2061646472657373000000000000000000000000000000000000000000006020830152604082019050919050565b6000612933602983613333565b91507f4552433732313a206f776e657220717565727920666f72206e6f6e657869737460008301527f656e7420746f6b656e00000000000000000000000000000000000000000000006020830152604082019050919050565b6000612999602e83613333565b91507f45524337323155524953746f726167653a2055524920736574206f66206e6f6e60008301527f6578697374656e7420746f6b656e0000000000000000000000000000000000006020830152604082019050919050565b60006129ff600283613344565b91507f227d0000000000000000000000000000000000000000000000000000000000006000830152600282019050919050565b6000612a3f602083613333565b91507f4552433732313a206d696e7420746f20746865207a65726f20616464726573736000830152602082019050919050565b6000612a7f603183613333565b91507f45524337323155524953746f726167653a2055524920717565727920666f722060008301527f6e6f6e6578697374656e7420746f6b656e0000000000000000000000000000006020830152604082019050919050565b6000612ae5602c83613333565b91507f4552433732313a20617070726f76656420717565727920666f72206e6f6e657860008301527f697374656e7420746f6b656e00000000000000000000000000000000000000006020830152604082019050919050565b6000612b4b602983613333565b91507f4552433732313a207472616e73666572206f6620746f6b656e2074686174206960008301527f73206e6f74206f776e00000000000000000000000000000000000000000000006020830152604082019050919050565b6000612bb1602f83613333565b91507f4552433732314d657461646174613a2055524920717565727920666f72206e6f60008301527f6e6578697374656e7420746f6b656e00000000000000000000000000000000006020830152604082019050919050565b6000612c17600a83613344565b91507f7b226e616d65223a2022000000000000000000000000000000000000000000006000830152600a82019050919050565b6000612c57602183613333565b91507f4552433732313a20617070726f76616c20746f2063757272656e74206f776e6560008301527f72000000000000000000000000000000000000000000000000000000000000006020830152604082019050919050565b6000612cbd600a83613344565b91507f46495253545f574f5244000000000000000000000000000000000000000000006000830152600a82019050919050565b6000612cfd601d83613344565b91507f646174613a6170706c69636174696f6e2f6a736f6e3b6261736536342c0000006000830152601d82019050919050565b6000612d3d603183613333565b91507f4552433732313a207472616e736665722063616c6c6572206973206e6f74206f60008301527f776e6572206e6f7220617070726f7665640000000000000000000000000000006020830152604082019050919050565b6000612da3606083613344565b91507f222c20226465736372697074696f6e223a20224120686967686c79206163636c60008301527f61696d656420636f6c6c656374696f6e206f6620636174732e222c2022696d6160208301527f6765223a2022646174613a696d6167652f7376672b786d6c3b6261736536342c6040830152606082019050919050565b612e2b816134ce565b82525050565b6000612e3d8284612538565b915081905092915050565b6000612e548285612538565b9150612e608284612538565b91508190509392505050565b6000612e788286612538565b9150612e848285612538565b9150612e908284612538565b9150819050949350505050565b6000612ea98285612569565b9150612eb58284612538565b9150612ec08261281a565b91508190509392505050565b6000612ed78261268e565b9150612ee38284612538565b915081905092915050565b6000612ef982612774565b9150612f058284612538565b915081905092915050565b6000612f1b82612c0a565b9150612f278285612538565b9150612f3282612d96565b9150612f3e8284612538565b9150612f49826129f2565b91508190509392505050565b6000612f6082612cb0565b9150612f6c8284612538565b915081905092915050565b6000612f8282612cf0565b9150612f8e8284612538565b915081905092915050565b6000602082019050612fae60008301846124a8565b92915050565b6000608082019050612fc960008301876124a8565b612fd660208301866124a8565b612fe36040830185612e22565b8181036060830152612ff581846124c6565b905095945050505050565b600060208201905061301560008301846124b7565b92915050565b6000602082019050818103600083015261303581846124ff565b905092915050565b6000606082019050818103600083015261305781866124ff565b90506130666020830185612e22565b61307360408301846124a8565b949350505050565b60006020820190508181036000830152613094816125e8565b9050919050565b600060208201905081810360008301526130b48161264e565b9050919050565b600060208201905081810360008301526130d4816126ce565b9050919050565b600060208201905081810360008301526130f481612734565b9050919050565b60006020820190508181036000830152613114816127b4565b9050919050565b600060208201905081810360008301526131348161285a565b9050919050565b60006020820190508181036000830152613154816128c0565b9050919050565b6000602082019050818103600083015261317481612926565b9050919050565b600060208201905081810360008301526131948161298c565b9050919050565b600060208201905081810360008301526131b481612a32565b9050919050565b600060208201905081810360008301526131d481612a72565b9050919050565b600060208201905081810360008301526131f481612ad8565b9050919050565b6000602082019050818103600083015261321481612b3e565b9050919050565b6000602082019050818103600083015261323481612ba4565b9050919050565b6000602082019050818103600083015261325481612c4a565b9050919050565b6000602082019050818103600083015261327481612d30565b9050919050565b60006020820190506132906000830184612e22565b92915050565b6000604051905081810181811067ffffffffffffffff821117156132bd576132bc613653565b5b8060405250919050565b600067ffffffffffffffff8211156132e2576132e1613653565b5b601f19601f8301169050602081019050919050565b60008190508160005260206000209050919050565b600081519050919050565b600081519050919050565b600082825260208201905092915050565b600082825260208201905092915050565b600081905092915050565b600061335a826134ce565b9150613365836134ce565b9250827fffffffffffffffffffffffffffffffffffffffffffffffffffffffffffffffff0382111561339a576133996135c6565b5b828201905092915050565b60006133b0826134ce565b91506133bb836134ce565b9250826133cb576133ca6135f5565b5b828204905092915050565b60006133e1826134ce565b91506133ec836134ce565b9250817fffffffffffffffffffffffffffffffffffffffffffffffffffffffffffffffff0483118215151615613425576134246135c6565b5b828202905092915050565b600061343b826134ce565b9150613446836134ce565b925082821015613459576134586135c6565b5b828203905092915050565b600061346f826134ae565b9050919050565b60008115159050919050565b60007fffffffff0000000000000000000000000000000000000000000000000000000082169050919050565b600073ffffffffffffffffffffffffffffffffffffffff82169050919050565b6000819050919050565b82818337600083830152505050565b60005b838110156135055780820151818401526020810190506134ea565b83811115613514576000848401525b50505050565b6000600282049050600182168061353257607f821691505b6020821081141561354657613545613624565b5b50919050565b6000613557826134ce565b91507fffffffffffffffffffffffffffffffffffffffffffffffffffffffffffffffff82141561358a576135896135c6565b5b600182019050919050565b60006135a0826134ce565b91506135ab836134ce565b9250826135bb576135ba6135f5565b5b828206905092915050565b7f4e487b7100000000000000000000000000000000000000000000000000000000600052601160045260246000fd5b7f4e487b7100000000000000000000000000000000000000000000000000000000600052601260045260246000fd5b7f4e487b7100000000000000000000000000000000000000000000000000000000600052602260045260246000fd5b7f4e487b7100000000000000000000000000000000000000000000000000000000600052604160045260246000fd5b6000601f19601f8301169050919050565b61369c81613464565b81146136a757600080fd5b50565b6136b381613476565b81146136be57600080fd5b50565b6136ca81613482565b81146136d557600080fd5b50565b6136e1816134ce565b81146136ec57600080fd5b5056fe4142434445464748494a4b4c4d4e4f505152535455565758595a6162636465666768696a6b6c6d6e6f707172737475767778797a303132333435363738392b2fa26469706673582212209e3ee4a2d80bc789f1419042128cbc6fd59bc8f960d1dc620b00788db497cae264736f6c634300080000333c73766720786d6c6e733d27687474703a2f2f7777772e77332e6f72672f323030302f73766727207072657365727665417370656374526174696f3d27784d696e594d696e206d656574272076696577426f783d273020302033353020333530273e3c7374796c653e2e62617365207b2066696c6c3a2077686974653b20666f6e742d66616d696c793a2073657269663b20666f6e742d73697a653a20323470783b207d3c2f7374796c653e3c726563742077696474683d273130302527206865696768743d2731303025272066696c6c3d27626c61636b27202f3e3c7465787420783d273530252720793d273530252720636c6173733d27626173652720646f6d696e616e742d626173656c696e653d276d6964646c652720746578742d616e63686f723d276d6964646c65273e",
  "linkReferences": {},
  "deployedLinkReferences": {}
}